{
  "_format": "hh-sol-artifact-1",
  "contractName": "Synftony",
  "sourceName": "contracts/synftony.sol",
  "abi": [
    {
      "inputs": [
        {
          "internalType": "uint256",
          "name": "barPrice",
          "type": "uint256"
        }
      ],
      "stateMutability": "nonpayable",
      "type": "constructor"
    },
    {
      "anonymous": false,
      "inputs": [
        {
          "indexed": true,
          "internalType": "address",
          "name": "owner",
          "type": "address"
        },
        {
          "indexed": true,
          "internalType": "address",
          "name": "approved",
          "type": "address"
        },
        {
          "indexed": true,
          "internalType": "uint256",
          "name": "tokenId",
          "type": "uint256"
        }
      ],
      "name": "Approval",
      "type": "event"
    },
    {
      "anonymous": false,
      "inputs": [
        {
          "indexed": true,
          "internalType": "address",
          "name": "owner",
          "type": "address"
        },
        {
          "indexed": true,
          "internalType": "address",
          "name": "operator",
          "type": "address"
        },
        {
          "indexed": false,
          "internalType": "bool",
          "name": "approved",
          "type": "bool"
        }
      ],
      "name": "ApprovalForAll",
      "type": "event"
    },
    {
      "anonymous": false,
      "inputs": [
        {
          "indexed": true,
          "internalType": "uint256",
          "name": "barIndex",
          "type": "uint256"
        },
        {
          "indexed": false,
          "internalType": "string",
          "name": "abc",
          "type": "string"
        }
      ],
      "name": "BarChanged",
      "type": "event"
    },
    {
      "anonymous": false,
      "inputs": [
        {
          "indexed": false,
          "internalType": "string",
          "name": "newBaseURI",
          "type": "string"
        }
      ],
      "name": "BaseURIChanged",
      "type": "event"
    },
    {
      "anonymous": false,
      "inputs": [
        {
          "indexed": true,
          "internalType": "address",
          "name": "previousOwner",
          "type": "address"
        },
        {
          "indexed": true,
          "internalType": "address",
          "name": "newOwner",
          "type": "address"
        }
      ],
      "name": "OwnershipTransferred",
      "type": "event"
    },
    {
      "anonymous": false,
      "inputs": [
        {
          "indexed": false,
          "internalType": "uint256",
          "name": "newPrice",
          "type": "uint256"
        }
      ],
      "name": "PriceChanged",
      "type": "event"
    },
    {
      "anonymous": false,
      "inputs": [
        {
          "indexed": true,
          "internalType": "address",
          "name": "from",
          "type": "address"
        },
        {
          "indexed": true,
          "internalType": "address",
          "name": "to",
          "type": "address"
        },
        {
          "indexed": true,
          "internalType": "uint256",
          "name": "tokenId",
          "type": "uint256"
        }
      ],
      "name": "Transfer",
      "type": "event"
    },
    {
      "inputs": [
        {
          "internalType": "address",
          "name": "to",
          "type": "address"
        },
        {
          "internalType": "uint256",
          "name": "tokenId",
          "type": "uint256"
        }
      ],
      "name": "approve",
      "outputs": [],
      "stateMutability": "nonpayable",
      "type": "function"
    },
    {
      "inputs": [
        {
          "internalType": "address",
          "name": "owner",
          "type": "address"
        }
      ],
      "name": "balanceOf",
      "outputs": [
        {
          "internalType": "uint256",
          "name": "",
          "type": "uint256"
        }
      ],
      "stateMutability": "view",
      "type": "function"
    },
    {
      "inputs": [],
      "name": "baseURI",
      "outputs": [
        {
          "internalType": "string",
          "name": "",
          "type": "string"
        }
      ],
      "stateMutability": "view",
      "type": "function"
    },
    {
      "inputs": [
        {
          "internalType": "uint256",
          "name": "barIndex",
          "type": "uint256"
        },
        {
          "internalType": "string",
          "name": "abc",
          "type": "string"
        }
      ],
      "name": "changeBar",
      "outputs": [],
      "stateMutability": "nonpayable",
      "type": "function"
    },
    {
      "inputs": [
        {
          "internalType": "uint256",
          "name": "tokenId",
          "type": "uint256"
        }
      ],
      "name": "getApproved",
      "outputs": [
        {
          "internalType": "address",
          "name": "",
          "type": "address"
        }
      ],
      "stateMutability": "view",
      "type": "function"
    },
    {
      "inputs": [
        {
          "internalType": "address",
          "name": "owner",
          "type": "address"
        },
        {
          "internalType": "address",
          "name": "operator",
          "type": "address"
        }
      ],
      "name": "isApprovedForAll",
      "outputs": [
        {
          "internalType": "bool",
          "name": "",
          "type": "bool"
        }
      ],
      "stateMutability": "view",
      "type": "function"
    },
    {
      "inputs": [
        {
          "internalType": "address",
          "name": "receiver",
          "type": "address"
        },
        {
          "internalType": "uint256",
          "name": "barIndex",
          "type": "uint256"
        },
        {
          "internalType": "string",
          "name": "abc",
          "type": "string"
        }
      ],
      "name": "mintBar",
      "outputs": [],
      "stateMutability": "payable",
      "type": "function"
    },
    {
      "inputs": [],
      "name": "name",
      "outputs": [
        {
          "internalType": "string",
          "name": "",
          "type": "string"
        }
      ],
      "stateMutability": "view",
      "type": "function"
    },
    {
      "inputs": [],
      "name": "numBars",
      "outputs": [
        {
          "internalType": "uint256",
          "name": "",
          "type": "uint256"
        }
      ],
      "stateMutability": "view",
      "type": "function"
    },
    {
      "inputs": [],
      "name": "owner",
      "outputs": [
        {
          "internalType": "address",
          "name": "",
          "type": "address"
        }
      ],
      "stateMutability": "view",
      "type": "function"
    },
    {
      "inputs": [
        {
          "internalType": "uint256",
          "name": "tokenId",
          "type": "uint256"
        }
      ],
      "name": "ownerOf",
      "outputs": [
        {
          "internalType": "address",
          "name": "",
          "type": "address"
        }
      ],
      "stateMutability": "view",
      "type": "function"
    },
    {
      "inputs": [
        {
          "internalType": "address",
          "name": "dest",
          "type": "address"
        }
      ],
      "name": "payments",
      "outputs": [
        {
          "internalType": "uint256",
          "name": "",
          "type": "uint256"
        }
      ],
      "stateMutability": "view",
      "type": "function"
    },
    {
      "inputs": [],
      "name": "price",
      "outputs": [
        {
          "internalType": "uint256",
          "name": "",
          "type": "uint256"
        }
      ],
      "stateMutability": "view",
      "type": "function"
    },
    {
      "inputs": [],
      "name": "renounceOwnership",
      "outputs": [],
      "stateMutability": "nonpayable",
      "type": "function"
    },
    {
      "inputs": [
        {
          "internalType": "address",
          "name": "from",
          "type": "address"
        },
        {
          "internalType": "address",
          "name": "to",
          "type": "address"
        },
        {
          "internalType": "uint256",
          "name": "tokenId",
          "type": "uint256"
        }
      ],
      "name": "safeTransferFrom",
      "outputs": [],
      "stateMutability": "nonpayable",
      "type": "function"
    },
    {
      "inputs": [
        {
          "internalType": "address",
          "name": "from",
          "type": "address"
        },
        {
          "internalType": "address",
          "name": "to",
          "type": "address"
        },
        {
          "internalType": "uint256",
          "name": "tokenId",
          "type": "uint256"
        },
        {
          "internalType": "bytes",
          "name": "_data",
          "type": "bytes"
        }
      ],
      "name": "safeTransferFrom",
      "outputs": [],
      "stateMutability": "nonpayable",
      "type": "function"
    },
    {
      "inputs": [
        {
          "internalType": "address",
          "name": "operator",
          "type": "address"
        },
        {
          "internalType": "bool",
          "name": "approved",
          "type": "bool"
        }
      ],
      "name": "setApprovalForAll",
      "outputs": [],
      "stateMutability": "nonpayable",
      "type": "function"
    },
    {
      "inputs": [
        {
          "internalType": "string",
          "name": "newBaseURI",
          "type": "string"
        }
      ],
      "name": "setBaseURI",
      "outputs": [],
      "stateMutability": "nonpayable",
      "type": "function"
    },
    {
      "inputs": [
        {
          "internalType": "uint256",
          "name": "newPrice",
          "type": "uint256"
        }
      ],
      "name": "setPrice",
      "outputs": [],
      "stateMutability": "nonpayable",
      "type": "function"
    },
    {
      "inputs": [
        {
          "internalType": "bytes4",
          "name": "interfaceId",
          "type": "bytes4"
        }
      ],
      "name": "supportsInterface",
      "outputs": [
        {
          "internalType": "bool",
          "name": "",
          "type": "bool"
        }
      ],
      "stateMutability": "view",
      "type": "function"
    },
    {
      "inputs": [],
      "name": "symbol",
      "outputs": [
        {
          "internalType": "string",
          "name": "",
          "type": "string"
        }
      ],
      "stateMutability": "view",
      "type": "function"
    },
    {
      "inputs": [
        {
          "internalType": "uint256",
          "name": "index",
          "type": "uint256"
        }
      ],
      "name": "tokenByIndex",
      "outputs": [
        {
          "internalType": "uint256",
          "name": "",
          "type": "uint256"
        }
      ],
      "stateMutability": "view",
      "type": "function"
    },
    {
      "inputs": [
        {
          "internalType": "address",
          "name": "owner",
          "type": "address"
        },
        {
          "internalType": "uint256",
          "name": "index",
          "type": "uint256"
        }
      ],
      "name": "tokenOfOwnerByIndex",
      "outputs": [
        {
          "internalType": "uint256",
          "name": "",
          "type": "uint256"
        }
      ],
      "stateMutability": "view",
      "type": "function"
    },
    {
      "inputs": [
        {
          "internalType": "uint256",
          "name": "tokenId",
          "type": "uint256"
        }
      ],
      "name": "tokenURI",
      "outputs": [
        {
          "internalType": "string",
          "name": "",
          "type": "string"
        }
      ],
      "stateMutability": "view",
      "type": "function"
    },
    {
      "inputs": [],
      "name": "totalSupply",
      "outputs": [
        {
          "internalType": "uint256",
          "name": "",
          "type": "uint256"
        }
      ],
      "stateMutability": "view",
      "type": "function"
    },
    {
      "inputs": [
        {
          "internalType": "address",
          "name": "from",
          "type": "address"
        },
        {
          "internalType": "address",
          "name": "to",
          "type": "address"
        },
        {
          "internalType": "uint256",
          "name": "tokenId",
          "type": "uint256"
        }
      ],
      "name": "transferFrom",
      "outputs": [],
      "stateMutability": "nonpayable",
      "type": "function"
    },
    {
      "inputs": [
        {
          "internalType": "address",
          "name": "newOwner",
          "type": "address"
        }
      ],
      "name": "transferOwnership",
      "outputs": [],
      "stateMutability": "nonpayable",
      "type": "function"
    },
    {
      "inputs": [
        {
          "internalType": "address payable",
          "name": "payee",
          "type": "address"
        }
      ],
      "name": "withdrawPayments",
      "outputs": [],
      "stateMutability": "nonpayable",
      "type": "function"
    }
  ],
  "bytecode": "0x60a06040523480156200001157600080fd5b50604051620051cd380380620051cd8339818101604052810190620000379190620002dd565b6040518060400160405280600381526020017f534e3100000000000000000000000000000000000000000000000000000000008152506040518060400160405280600b81526020017f53796e66746f6e794e6f310000000000000000000000000000000000000000008152508160009080519060200190620000bb92919062000208565b508060019080519060200190620000d492919062000208565b5050506000620000e96200020060201b60201c565b905080600a60006101000a81548173ffffffffffffffffffffffffffffffffffffffff021916908373ffffffffffffffffffffffffffffffffffffffff1602179055508073ffffffffffffffffffffffffffffffffffffffff16600073ffffffffffffffffffffffffffffffffffffffff167f8be0079c531659141344cd1fd0a4f28419497f9722a3daafe3b4186f6b6457e060405160405180910390a350604051620001969062000299565b604051809103906000f080158015620001b3573d6000803e3d6000fd5b5073ffffffffffffffffffffffffffffffffffffffff1660808173ffffffffffffffffffffffffffffffffffffffff1660601b815250506000600b8190555080600c819055505062000392565b600033905090565b828054620002169062000313565b90600052602060002090601f0160209004810192826200023a576000855562000286565b82601f106200025557805160ff191683800117855562000286565b8280016001018555821562000286579182015b828111156200028557825182559160200191906001019062000268565b5b509050620002959190620002a7565b5090565b610dae806200441f83390190565b5b80821115620002c2576000816000905550600101620002a8565b5090565b600081519050620002d78162000378565b92915050565b600060208284031215620002f057600080fd5b60006200030084828501620002c6565b91505092915050565b6000819050919050565b600060028204905060018216806200032c57607f821691505b6020821081141562000343576200034262000349565b5b50919050565b7f4e487b7100000000000000000000000000000000000000000000000000000000600052602260045260246000fd5b620003838162000309565b81146200038f57600080fd5b50565b60805160601c614060620003bf60003960008181610b2001528181611476015261221501526140606000f3fe6080604052600436106101b75760003560e01c806370a08231116100ec578063a22cb4651161008a578063e2982c2111610064578063e2982c211461061c578063e985e9c514610659578063f2fde38b14610696578063f558b654146106bf576101b7565b8063a22cb4651461058d578063b88d4fde146105b6578063c87b56dd146105df576101b7565b806391b7f5ed116100c657806391b7f5ed146104e357806395d89b411461050c578063a035b1fe14610537578063a094573814610562576101b7565b806370a0823114610464578063715018a6146104a15780638da5cb5b146104b8576101b7565b80632f745c59116101595780634f6ccce7116101335780634f6ccce71461039657806355f804b3146103d35780636352211e146103fc5780636c0360eb14610439576101b7565b80632f745c591461030757806331b3eb941461034457806342842e0e1461036d576101b7565b8063095ea7b311610195578063095ea7b31461026157806309b8941f1461028a57806318160ddd146102b357806323b872dd146102de576101b7565b806301ffc9a7146101bc57806306fdde03146101f9578063081812fc14610224575b600080fd5b3480156101c857600080fd5b506101e360048036038101906101de9190612d6c565b6106db565b6040516101f0919061333e565b60405180910390f35b34801561020557600080fd5b5061020e610755565b60405161021b919061337d565b60405180910390f35b34801561023057600080fd5b5061024b60048036038101906102469190612e03565b6107e7565b60405161025891906132bc565b60405180910390f35b34801561026d57600080fd5b5061028860048036038101906102839190612cc4565b61086c565b005b34801561029657600080fd5b506102b160048036038101906102ac9190612e55565b610984565b005b3480156102bf57600080fd5b506102c8610a0c565b6040516102d5919061363f565b60405180910390f35b3480156102ea57600080fd5b5061030560048036038101906103009190612bbe565b610a19565b005b34801561031357600080fd5b5061032e60048036038101906103299190612cc4565b610a79565b60405161033b919061363f565b60405180910390f35b34801561035057600080fd5b5061036b60048036038101906103669190612b59565b610b1e565b005b34801561037957600080fd5b50610394600480360381019061038f9190612bbe565b610bac565b005b3480156103a257600080fd5b506103bd60048036038101906103b89190612e03565b610bcc565b6040516103ca919061363f565b60405180910390f35b3480156103df57600080fd5b506103fa60048036038101906103f59190612dbe565b610c63565b005b34801561040857600080fd5b50610423600480360381019061041e9190612e03565b610d2e565b60405161043091906132bc565b60405180910390f35b34801561044557600080fd5b5061044e610de0565b60405161045b919061337d565b60405180910390f35b34801561047057600080fd5b5061048b60048036038101906104869190612b30565b610e6e565b604051610498919061363f565b60405180910390f35b3480156104ad57600080fd5b506104b6610f26565b005b3480156104c457600080fd5b506104cd611063565b6040516104da91906132bc565b60405180910390f35b3480156104ef57600080fd5b5061050a60048036038101906105059190612e03565b61108d565b005b34801561051857600080fd5b5061052161114a565b60405161052e919061337d565b60405180910390f35b34801561054357600080fd5b5061054c6111dc565b604051610559919061363f565b60405180910390f35b34801561056e57600080fd5b506105776111e2565b604051610584919061363f565b60405180910390f35b34801561059957600080fd5b506105b460048036038101906105af9190612c88565b6111e8565b005b3480156105c257600080fd5b506105dd60048036038101906105d89190612c0d565b611369565b005b3480156105eb57600080fd5b5061060660048036038101906106019190612e03565b6113cb565b604051610613919061337d565b60405180910390f35b34801561062857600080fd5b50610643600480360381019061063e9190612b30565b611472565b604051610650919061363f565b60405180910390f35b34801561066557600080fd5b50610680600480360381019061067b9190612b82565b611524565b60405161068d919061333e565b60405180910390f35b3480156106a257600080fd5b506106bd60048036038101906106b89190612b30565b6115b8565b005b6106d960048036038101906106d49190612d00565b611764565b005b60007f780e9d63000000000000000000000000000000000000000000000000000000007bffffffffffffffffffffffffffffffffffffffffffffffffffffffff1916827bffffffffffffffffffffffffffffffffffffffffffffffffffffffff1916148061074e575061074d82611861565b5b9050919050565b60606000805461076490613876565b80601f016020809104026020016040519081016040528092919081815260200182805461079090613876565b80156107dd5780601f106107b2576101008083540402835291602001916107dd565b820191906000526020600020905b8154815290600101906020018083116107c057829003601f168201915b5050505050905090565b60006107f282611943565b610831576040517f08c379a00000000000000000000000000000000000000000000000000000000081526004016108289061353f565b60405180910390fd5b6004600083815260200190815260200160002060009054906101000a900473ffffffffffffffffffffffffffffffffffffffff169050919050565b600061087782610d2e565b90508073ffffffffffffffffffffffffffffffffffffffff168373ffffffffffffffffffffffffffffffffffffffff1614156108e8576040517f08c379a00000000000000000000000000000000000000000000000000000000081526004016108df906135bf565b60405180910390fd5b8073ffffffffffffffffffffffffffffffffffffffff166109076119af565b73ffffffffffffffffffffffffffffffffffffffff1614806109365750610935816109306119af565b611524565b5b610975576040517f08c379a000000000000000000000000000000000000000000000000000000000815260040161096c9061349f565b60405180910390fd5b61097f83836119b7565b505050565b61098e3384611a70565b6109cd576040517f08c379a00000000000000000000000000000000000000000000000000000000081526004016109c49061347f565b60405180910390fd5b827f67fed6c1569802463e438d8bc2a653fd7030a8d2f6e84846357b80ca4f47adc283836040516109ff929190613359565b60405180910390a2505050565b6000600880549050905090565b610a2a610a246119af565b82611a70565b610a69576040517f08c379a0000000000000000000000000000000000000000000000000000000008152600401610a60906135df565b60405180910390fd5b610a74838383611b4e565b505050565b6000610a8483610e6e565b8210610ac5576040517f08c379a0000000000000000000000000000000000000000000000000000000008152600401610abc9061339f565b60405180910390fd5b600660008473ffffffffffffffffffffffffffffffffffffffff1673ffffffffffffffffffffffffffffffffffffffff168152602001908152602001600020600083815260200190815260200160002054905092915050565b7f000000000000000000000000000000000000000000000000000000000000000073ffffffffffffffffffffffffffffffffffffffff166351cff8d9826040518263ffffffff1660e01b8152600401610b7791906132d7565b600060405180830381600087803b158015610b9157600080fd5b505af1158015610ba5573d6000803e3d6000fd5b5050505050565b610bc783838360405180602001604052806000815250611369565b505050565b6000610bd6610a0c565b8210610c17576040517f08c379a0000000000000000000000000000000000000000000000000000000008152600401610c0e906135ff565b60405180910390fd5b60088281548110610c51577f4e487b7100000000000000000000000000000000000000000000000000000000600052603260045260246000fd5b90600052602060002001549050919050565b610c6b6119af565b73ffffffffffffffffffffffffffffffffffffffff16610c89611063565b73ffffffffffffffffffffffffffffffffffffffff1614610cdf576040517f08c379a0000000000000000000000000000000000000000000000000000000008152600401610cd69061355f565b60405180910390fd5b8181600d9190610cf0929190612948565b507f5411e8ebf1636d9e83d5fc4900bf80cbac82e8790da2a4c94db4895e889eedf68282604051610d22929190613359565b60405180910390a15050565b6000806002600084815260200190815260200160002060009054906101000a900473ffffffffffffffffffffffffffffffffffffffff169050600073ffffffffffffffffffffffffffffffffffffffff168173ffffffffffffffffffffffffffffffffffffffff161415610dd7576040517f08c379a0000000000000000000000000000000000000000000000000000000008152600401610dce906134df565b60405180910390fd5b80915050919050565b600d8054610ded90613876565b80601f0160208091040260200160405190810160405280929190818152602001828054610e1990613876565b8015610e665780601f10610e3b57610100808354040283529160200191610e66565b820191906000526020600020905b815481529060010190602001808311610e4957829003601f168201915b505050505081565b60008073ffffffffffffffffffffffffffffffffffffffff168273ffffffffffffffffffffffffffffffffffffffff161415610edf576040517f08c379a0000000000000000000000000000000000000000000000000000000008152600401610ed6906134bf565b60405180910390fd5b600360008373ffffffffffffffffffffffffffffffffffffffff1673ffffffffffffffffffffffffffffffffffffffff168152602001908152602001600020549050919050565b610f2e6119af565b73ffffffffffffffffffffffffffffffffffffffff16610f4c611063565b73ffffffffffffffffffffffffffffffffffffffff1614610fa2576040517f08c379a0000000000000000000000000000000000000000000000000000000008152600401610f999061355f565b60405180910390fd5b600073ffffffffffffffffffffffffffffffffffffffff16600a60009054906101000a900473ffffffffffffffffffffffffffffffffffffffff1673ffffffffffffffffffffffffffffffffffffffff167f8be0079c531659141344cd1fd0a4f28419497f9722a3daafe3b4186f6b6457e060405160405180910390a36000600a60006101000a81548173ffffffffffffffffffffffffffffffffffffffff021916908373ffffffffffffffffffffffffffffffffffffffff160217905550565b6000600a60009054906101000a900473ffffffffffffffffffffffffffffffffffffffff16905090565b6110956119af565b73ffffffffffffffffffffffffffffffffffffffff166110b3611063565b73ffffffffffffffffffffffffffffffffffffffff1614611109576040517f08c379a00000000000000000000000000000000000000000000000000000000081526004016111009061355f565b60405180910390fd5b80600c819055507fa6dc15bdb68da224c66db4b3838d9a2b205138e8cff6774e57d0af91e196d6228160405161113f919061363f565b60405180910390a150565b60606001805461115990613876565b80601f016020809104026020016040519081016040528092919081815260200182805461118590613876565b80156111d25780601f106111a7576101008083540402835291602001916111d2565b820191906000526020600020905b8154815290600101906020018083116111b557829003601f168201915b5050505050905090565b600c5481565b600b5481565b6111f06119af565b73ffffffffffffffffffffffffffffffffffffffff168273ffffffffffffffffffffffffffffffffffffffff16141561125e576040517f08c379a00000000000000000000000000000000000000000000000000000000081526004016112559061343f565b60405180910390fd5b806005600061126b6119af565b73ffffffffffffffffffffffffffffffffffffffff1673ffffffffffffffffffffffffffffffffffffffff16815260200190815260200160002060008473ffffffffffffffffffffffffffffffffffffffff1673ffffffffffffffffffffffffffffffffffffffff16815260200190815260200160002060006101000a81548160ff0219169083151502179055508173ffffffffffffffffffffffffffffffffffffffff166113186119af565b73ffffffffffffffffffffffffffffffffffffffff167f17307eab39ab6107e8899845ad3d59bd9653f200f220920489ca2b5937696c318360405161135d919061333e565b60405180910390a35050565b61137a6113746119af565b83611a70565b6113b9576040517f08c379a00000000000000000000000000000000000000000000000000000000081526004016113b0906135df565b60405180910390fd5b6113c584848484611daa565b50505050565b60606113d682611943565b611415576040517f08c379a000000000000000000000000000000000000000000000000000000000815260040161140c9061359f565b60405180910390fd5b600061141f611e06565b9050600081511161143f576040518060200160405280600081525061146a565b8061144984611e98565b60405160200161145a929190613298565b6040516020818303038152906040525b915050919050565b60007f000000000000000000000000000000000000000000000000000000000000000073ffffffffffffffffffffffffffffffffffffffff1663e3a9db1a836040518263ffffffff1660e01b81526004016114cd91906132bc565b60206040518083038186803b1580156114e557600080fd5b505afa1580156114f9573d6000803e3d6000fd5b505050506040513d601f19601f8201168201806040525081019061151d9190612e2c565b9050919050565b6000600560008473ffffffffffffffffffffffffffffffffffffffff1673ffffffffffffffffffffffffffffffffffffffff16815260200190815260200160002060008373ffffffffffffffffffffffffffffffffffffffff1673ffffffffffffffffffffffffffffffffffffffff16815260200190815260200160002060009054906101000a900460ff16905092915050565b6115c06119af565b73ffffffffffffffffffffffffffffffffffffffff166115de611063565b73ffffffffffffffffffffffffffffffffffffffff1614611634576040517f08c379a000000000000000000000000000000000000000000000000000000000815260040161162b9061355f565b60405180910390fd5b600073ffffffffffffffffffffffffffffffffffffffff168173ffffffffffffffffffffffffffffffffffffffff1614156116a4576040517f08c379a000000000000000000000000000000000000000000000000000000000815260040161169b906133df565b60405180910390fd5b8073ffffffffffffffffffffffffffffffffffffffff16600a60009054906101000a900473ffffffffffffffffffffffffffffffffffffffff1673ffffffffffffffffffffffffffffffffffffffff167f8be0079c531659141344cd1fd0a4f28419497f9722a3daafe3b4186f6b6457e060405160405180910390a380600a60006101000a81548173ffffffffffffffffffffffffffffffffffffffff021916908373ffffffffffffffffffffffffffffffffffffffff16021790555050565b600b5483146117a8576040517f08c379a000000000000000000000000000000000000000000000000000000000815260040161179f906134ff565b60405180910390fd5b600c5434146117ec576040517f08c379a00000000000000000000000000000000000000000000000000000000081526004016117e39061361f565b60405180910390fd5b6117f68484612045565b611807611801611063565b34612213565b6001600b600082825461181a91906136f3565b92505081905550827f67fed6c1569802463e438d8bc2a653fd7030a8d2f6e84846357b80ca4f47adc28383604051611853929190613359565b60405180910390a250505050565b60007f80ac58cd000000000000000000000000000000000000000000000000000000007bffffffffffffffffffffffffffffffffffffffffffffffffffffffff1916827bffffffffffffffffffffffffffffffffffffffffffffffffffffffff1916148061192c57507f5b5e139f000000000000000000000000000000000000000000000000000000007bffffffffffffffffffffffffffffffffffffffffffffffffffffffff1916827bffffffffffffffffffffffffffffffffffffffffffffffffffffffff1916145b8061193c575061193b826122a3565b5b9050919050565b60008073ffffffffffffffffffffffffffffffffffffffff166002600084815260200190815260200160002060009054906101000a900473ffffffffffffffffffffffffffffffffffffffff1673ffffffffffffffffffffffffffffffffffffffff1614159050919050565b600033905090565b816004600083815260200190815260200160002060006101000a81548173ffffffffffffffffffffffffffffffffffffffff021916908373ffffffffffffffffffffffffffffffffffffffff160217905550808273ffffffffffffffffffffffffffffffffffffffff16611a2a83610d2e565b73ffffffffffffffffffffffffffffffffffffffff167f8c5be1e5ebec7d5bd14f71427d1e84f3dd0314c0f7b2291e5b200ac8c7c3b92560405160405180910390a45050565b6000611a7b82611943565b611aba576040517f08c379a0000000000000000000000000000000000000000000000000000000008152600401611ab19061345f565b60405180910390fd5b6000611ac583610d2e565b90508073ffffffffffffffffffffffffffffffffffffffff168473ffffffffffffffffffffffffffffffffffffffff161480611b3457508373ffffffffffffffffffffffffffffffffffffffff16611b1c846107e7565b73ffffffffffffffffffffffffffffffffffffffff16145b80611b455750611b448185611524565b5b91505092915050565b8273ffffffffffffffffffffffffffffffffffffffff16611b6e82610d2e565b73ffffffffffffffffffffffffffffffffffffffff1614611bc4576040517f08c379a0000000000000000000000000000000000000000000000000000000008152600401611bbb9061357f565b60405180910390fd5b600073ffffffffffffffffffffffffffffffffffffffff168273ffffffffffffffffffffffffffffffffffffffff161415611c34576040517f08c379a0000000000000000000000000000000000000000000000000000000008152600401611c2b9061341f565b60405180910390fd5b611c3f83838361230d565b611c4a6000826119b7565b6001600360008573ffffffffffffffffffffffffffffffffffffffff1673ffffffffffffffffffffffffffffffffffffffff1681526020019081526020016000206000828254611c9a919061377a565b925050819055506001600360008473ffffffffffffffffffffffffffffffffffffffff1673ffffffffffffffffffffffffffffffffffffffff1681526020019081526020016000206000828254611cf191906136f3565b92505081905550816002600083815260200190815260200160002060006101000a81548173ffffffffffffffffffffffffffffffffffffffff021916908373ffffffffffffffffffffffffffffffffffffffff160217905550808273ffffffffffffffffffffffffffffffffffffffff168473ffffffffffffffffffffffffffffffffffffffff167fddf252ad1be2c89b69c2b068fc378daa952ba7f163c4a11628f55a4df523b3ef60405160405180910390a4505050565b611db5848484611b4e565b611dc184848484612421565b611e00576040517f08c379a0000000000000000000000000000000000000000000000000000000008152600401611df7906133bf565b60405180910390fd5b50505050565b6060600d8054611e1590613876565b80601f0160208091040260200160405190810160405280929190818152602001828054611e4190613876565b8015611e8e5780601f10611e6357610100808354040283529160200191611e8e565b820191906000526020600020905b815481529060010190602001808311611e7157829003601f168201915b5050505050905090565b60606000821415611ee0576040518060400160405280600181526020017f30000000000000000000000000000000000000000000000000000000000000008152509050612040565b600082905060005b60008214611f12578080611efb906138d9565b915050600a82611f0b9190613749565b9150611ee8565b60008167ffffffffffffffff811115611f54577f4e487b7100000000000000000000000000000000000000000000000000000000600052604160045260246000fd5b6040519080825280601f01601f191660200182016040528015611f865781602001600182028036833780820191505090505b5090505b6000851461203957600182611f9f919061377a565b9150600a85611fae9190613922565b6030611fba91906136f3565b60f81b818381518110611ff6577f4e487b7100000000000000000000000000000000000000000000000000000000600052603260045260246000fd5b60200101907effffffffffffffffffffffffffffffffffffffffffffffffffffffffffffff1916908160001a905350600a856120329190613749565b9450611f8a565b8093505050505b919050565b600073ffffffffffffffffffffffffffffffffffffffff168273ffffffffffffffffffffffffffffffffffffffff1614156120b5576040517f08c379a00000000000000000000000000000000000000000000000000000000081526004016120ac9061351f565b60405180910390fd5b6120be81611943565b156120fe576040517f08c379a00000000000000000000000000000000000000000000000000000000081526004016120f5906133ff565b60405180910390fd5b61210a6000838361230d565b6001600360008473ffffffffffffffffffffffffffffffffffffffff1673ffffffffffffffffffffffffffffffffffffffff168152602001908152602001600020600082825461215a91906136f3565b92505081905550816002600083815260200190815260200160002060006101000a81548173ffffffffffffffffffffffffffffffffffffffff021916908373ffffffffffffffffffffffffffffffffffffffff160217905550808273ffffffffffffffffffffffffffffffffffffffff16600073ffffffffffffffffffffffffffffffffffffffff167fddf252ad1be2c89b69c2b068fc378daa952ba7f163c4a11628f55a4df523b3ef60405160405180910390a45050565b7f000000000000000000000000000000000000000000000000000000000000000073ffffffffffffffffffffffffffffffffffffffff1663f340fa0182846040518363ffffffff1660e01b815260040161226d91906132bc565b6000604051808303818588803b15801561228657600080fd5b505af115801561229a573d6000803e3d6000fd5b50505050505050565b60007f01ffc9a7000000000000000000000000000000000000000000000000000000007bffffffffffffffffffffffffffffffffffffffffffffffffffffffff1916827bffffffffffffffffffffffffffffffffffffffffffffffffffffffff1916149050919050565b6123188383836125b8565b600073ffffffffffffffffffffffffffffffffffffffff168373ffffffffffffffffffffffffffffffffffffffff16141561235b57612356816125bd565b61239a565b8173ffffffffffffffffffffffffffffffffffffffff168373ffffffffffffffffffffffffffffffffffffffff1614612399576123988382612606565b5b5b600073ffffffffffffffffffffffffffffffffffffffff168273ffffffffffffffffffffffffffffffffffffffff1614156123dd576123d881612773565b61241c565b8273ffffffffffffffffffffffffffffffffffffffff168273ffffffffffffffffffffffffffffffffffffffff161461241b5761241a82826128b6565b5b5b505050565b60006124428473ffffffffffffffffffffffffffffffffffffffff16612935565b156125ab578373ffffffffffffffffffffffffffffffffffffffff1663150b7a0261246b6119af565b8786866040518563ffffffff1660e01b815260040161248d94939291906132f2565b602060405180830381600087803b1580156124a757600080fd5b505af19250505080156124d857506040513d601f19601f820116820180604052508101906124d59190612d95565b60015b61255b573d8060008114612508576040519150601f19603f3d011682016040523d82523d6000602084013e61250d565b606091505b50600081511415612553576040517f08c379a000000000000000000000000000000000000000000000000000000000815260040161254a906133bf565b60405180910390fd5b805181602001fd5b63150b7a0260e01b7bffffffffffffffffffffffffffffffffffffffffffffffffffffffff1916817bffffffffffffffffffffffffffffffffffffffffffffffffffffffff1916149150506125b0565b600190505b949350505050565b505050565b6008805490506009600083815260200190815260200160002081905550600881908060018154018082558091505060019003906000526020600020016000909190919091505550565b6000600161261384610e6e565b61261d919061377a565b9050600060076000848152602001908152602001600020549050818114612702576000600660008673ffffffffffffffffffffffffffffffffffffffff1673ffffffffffffffffffffffffffffffffffffffff168152602001908152602001600020600084815260200190815260200160002054905080600660008773ffffffffffffffffffffffffffffffffffffffff1673ffffffffffffffffffffffffffffffffffffffff168152602001908152602001600020600084815260200190815260200160002081905550816007600083815260200190815260200160002081905550505b6007600084815260200190815260200160002060009055600660008573ffffffffffffffffffffffffffffffffffffffff1673ffffffffffffffffffffffffffffffffffffffff16815260200190815260200160002060008381526020019081526020016000206000905550505050565b60006001600880549050612787919061377a565b90506000600960008481526020019081526020016000205490506000600883815481106127dd577f4e487b7100000000000000000000000000000000000000000000000000000000600052603260045260246000fd5b906000526020600020015490508060088381548110612825577f4e487b7100000000000000000000000000000000000000000000000000000000600052603260045260246000fd5b90600052602060002001819055508160096000838152602001908152602001600020819055506009600085815260200190815260200160002060009055600880548061289a577f4e487b7100000000000000000000000000000000000000000000000000000000600052603160045260246000fd5b6001900381819060005260206000200160009055905550505050565b60006128c183610e6e565b905081600660008573ffffffffffffffffffffffffffffffffffffffff1673ffffffffffffffffffffffffffffffffffffffff168152602001908152602001600020600083815260200190815260200160002081905550806007600084815260200190815260200160002081905550505050565b600080823b905060008111915050919050565b82805461295490613876565b90600052602060002090601f01602090048101928261297657600085556129bd565b82601f1061298f57803560ff19168380011785556129bd565b828001600101855582156129bd579182015b828111156129bc5782358255916020019190600101906129a1565b5b5090506129ca91906129ce565b5090565b5b808211156129e75760008160009055506001016129cf565b5090565b60006129fe6129f98461367f565b61365a565b905082815260208101848484011115612a1657600080fd5b612a21848285613834565b509392505050565b600081359050612a3881613fb7565b92915050565b600081359050612a4d81613fce565b92915050565b600081359050612a6281613fe5565b92915050565b600081359050612a7781613ffc565b92915050565b600081519050612a8c81613ffc565b92915050565b600082601f830112612aa357600080fd5b8135612ab38482602086016129eb565b91505092915050565b60008083601f840112612ace57600080fd5b8235905067ffffffffffffffff811115612ae757600080fd5b602083019150836001820283011115612aff57600080fd5b9250929050565b600081359050612b1581614013565b92915050565b600081519050612b2a81614013565b92915050565b600060208284031215612b4257600080fd5b6000612b5084828501612a29565b91505092915050565b600060208284031215612b6b57600080fd5b6000612b7984828501612a3e565b91505092915050565b60008060408385031215612b9557600080fd5b6000612ba385828601612a29565b9250506020612bb485828601612a29565b9150509250929050565b600080600060608486031215612bd357600080fd5b6000612be186828701612a29565b9350506020612bf286828701612a29565b9250506040612c0386828701612b06565b9150509250925092565b60008060008060808587031215612c2357600080fd5b6000612c3187828801612a29565b9450506020612c4287828801612a29565b9350506040612c5387828801612b06565b925050606085013567ffffffffffffffff811115612c7057600080fd5b612c7c87828801612a92565b91505092959194509250565b60008060408385031215612c9b57600080fd5b6000612ca985828601612a29565b9250506020612cba85828601612a53565b9150509250929050565b60008060408385031215612cd757600080fd5b6000612ce585828601612a29565b9250506020612cf685828601612b06565b9150509250929050565b60008060008060608587031215612d1657600080fd5b6000612d2487828801612a29565b9450506020612d3587828801612b06565b935050604085013567ffffffffffffffff811115612d5257600080fd5b612d5e87828801612abc565b925092505092959194509250565b600060208284031215612d7e57600080fd5b6000612d8c84828501612a68565b91505092915050565b600060208284031215612da757600080fd5b6000612db584828501612a7d565b91505092915050565b60008060208385031215612dd157600080fd5b600083013567ffffffffffffffff811115612deb57600080fd5b612df785828601612abc565b92509250509250929050565b600060208284031215612e1557600080fd5b6000612e2384828501612b06565b91505092915050565b600060208284031215612e3e57600080fd5b6000612e4c84828501612b1b565b91505092915050565b600080600060408486031215612e6a57600080fd5b6000612e7886828701612b06565b935050602084013567ffffffffffffffff811115612e9557600080fd5b612ea186828701612abc565b92509250509250925092565b612eb6816137c0565b82525050565b612ec5816137ae565b82525050565b612ed4816137d2565b82525050565b6000612ee5826136b0565b612eef81856136c6565b9350612eff818560208601613843565b612f0881613a0f565b840191505092915050565b6000612f1f83856136d7565b9350612f2c838584613834565b612f3583613a0f565b840190509392505050565b6000612f4b826136bb565b612f5581856136d7565b9350612f65818560208601613843565b612f6e81613a0f565b840191505092915050565b6000612f84826136bb565b612f8e81856136e8565b9350612f9e818560208601613843565b80840191505092915050565b6000612fb7602b836136d7565b9150612fc282613a20565b604082019050919050565b6000612fda6032836136d7565b9150612fe582613a6f565b604082019050919050565b6000612ffd6026836136d7565b915061300882613abe565b604082019050919050565b6000613020601c836136d7565b915061302b82613b0d565b602082019050919050565b60006130436024836136d7565b915061304e82613b36565b604082019050919050565b60006130666019836136d7565b915061307182613b85565b602082019050919050565b6000613089602c836136d7565b915061309482613bae565b604082019050919050565b60006130ac602a836136d7565b91506130b782613bfd565b604082019050919050565b60006130cf6038836136d7565b91506130da82613c4c565b604082019050919050565b60006130f2602a836136d7565b91506130fd82613c9b565b604082019050919050565b60006131156029836136d7565b915061312082613cea565b604082019050919050565b6000613138601f836136d7565b915061314382613d39565b602082019050919050565b600061315b6020836136d7565b915061316682613d62565b602082019050919050565b600061317e602c836136d7565b915061318982613d8b565b604082019050919050565b60006131a16020836136d7565b91506131ac82613dda565b602082019050919050565b60006131c46029836136d7565b91506131cf82613e03565b604082019050919050565b60006131e7602f836136d7565b91506131f282613e52565b604082019050919050565b600061320a6021836136d7565b915061321582613ea1565b604082019050919050565b600061322d6031836136d7565b915061323882613ef0565b604082019050919050565b6000613250602c836136d7565b915061325b82613f3f565b604082019050919050565b6000613273601e836136d7565b915061327e82613f8e565b602082019050919050565b6132928161382a565b82525050565b60006132a48285612f79565b91506132b08284612f79565b91508190509392505050565b60006020820190506132d16000830184612ebc565b92915050565b60006020820190506132ec6000830184612ead565b92915050565b60006080820190506133076000830187612ebc565b6133146020830186612ebc565b6133216040830185613289565b81810360608301526133338184612eda565b905095945050505050565b60006020820190506133536000830184612ecb565b92915050565b60006020820190508181036000830152613374818486612f13565b90509392505050565b600060208201905081810360008301526133978184612f40565b905092915050565b600060208201905081810360008301526133b881612faa565b9050919050565b600060208201905081810360008301526133d881612fcd565b9050919050565b600060208201905081810360008301526133f881612ff0565b9050919050565b6000602082019050818103600083015261341881613013565b9050919050565b6000602082019050818103600083015261343881613036565b9050919050565b6000602082019050818103600083015261345881613059565b9050919050565b600060208201905081810360008301526134788161307c565b9050919050565b600060208201905081810360008301526134988161309f565b9050919050565b600060208201905081810360008301526134b8816130c2565b9050919050565b600060208201905081810360008301526134d8816130e5565b9050919050565b600060208201905081810360008301526134f881613108565b9050919050565b600060208201905081810360008301526135188161312b565b9050919050565b600060208201905081810360008301526135388161314e565b9050919050565b6000602082019050818103600083015261355881613171565b9050919050565b6000602082019050818103600083015261357881613194565b9050919050565b60006020820190508181036000830152613598816131b7565b9050919050565b600060208201905081810360008301526135b8816131da565b9050919050565b600060208201905081810360008301526135d8816131fd565b9050919050565b600060208201905081810360008301526135f881613220565b9050919050565b6000602082019050818103600083015261361881613243565b9050919050565b6000602082019050818103600083015261363881613266565b9050919050565b60006020820190506136546000830184613289565b92915050565b6000613664613675565b905061367082826138a8565b919050565b6000604051905090565b600067ffffffffffffffff82111561369a576136996139e0565b5b6136a382613a0f565b9050602081019050919050565b600081519050919050565b600081519050919050565b600082825260208201905092915050565b600082825260208201905092915050565b600081905092915050565b60006136fe8261382a565b91506137098361382a565b9250827fffffffffffffffffffffffffffffffffffffffffffffffffffffffffffffffff0382111561373e5761373d613953565b5b828201905092915050565b60006137548261382a565b915061375f8361382a565b92508261376f5761376e613982565b5b828204905092915050565b60006137858261382a565b91506137908361382a565b9250828210156137a3576137a2613953565b5b828203905092915050565b60006137b98261380a565b9050919050565b60006137cb8261380a565b9050919050565b60008115159050919050565b60007fffffffff0000000000000000000000000000000000000000000000000000000082169050919050565b600073ffffffffffffffffffffffffffffffffffffffff82169050919050565b6000819050919050565b82818337600083830152505050565b60005b83811015613861578082015181840152602081019050613846565b83811115613870576000848401525b50505050565b6000600282049050600182168061388e57607f821691505b602082108114156138a2576138a16139b1565b5b50919050565b6138b182613a0f565b810181811067ffffffffffffffff821117156138d0576138cf6139e0565b5b80604052505050565b60006138e48261382a565b91507fffffffffffffffffffffffffffffffffffffffffffffffffffffffffffffffff82141561391757613916613953565b5b600182019050919050565b600061392d8261382a565b91506139388361382a565b92508261394857613947613982565b5b828206905092915050565b7f4e487b7100000000000000000000000000000000000000000000000000000000600052601160045260246000fd5b7f4e487b7100000000000000000000000000000000000000000000000000000000600052601260045260246000fd5b7f4e487b7100000000000000000000000000000000000000000000000000000000600052602260045260246000fd5b7f4e487b7100000000000000000000000000000000000000000000000000000000600052604160045260246000fd5b6000601f19601f8301169050919050565b7f455243373231456e756d657261626c653a206f776e657220696e646578206f7560008201527f74206f6620626f756e6473000000000000000000000000000000000000000000602082015250565b7f4552433732313a207472616e7366657220746f206e6f6e20455243373231526560008201527f63656976657220696d706c656d656e7465720000000000000000000000000000602082015250565b7f4f776e61626c653a206e6577206f776e657220697320746865207a65726f206160008201527f6464726573730000000000000000000000000000000000000000000000000000602082015250565b7f4552433732313a20746f6b656e20616c7265616479206d696e74656400000000600082015250565b7f4552433732313a207472616e7366657220746f20746865207a65726f2061646460008201527f7265737300000000000000000000000000000000000000000000000000000000602082015250565b7f4552433732313a20617070726f766520746f2063616c6c657200000000000000600082015250565b7f4552433732313a206f70657261746f7220717565727920666f72206e6f6e657860008201527f697374656e7420746f6b656e0000000000000000000000000000000000000000602082015250565b7f53796e66746f6e793a2073656e646572206973206e6f74206f776e6572206e6f60008201527f7220617070726f76656400000000000000000000000000000000000000000000602082015250565b7f4552433732313a20617070726f76652063616c6c6572206973206e6f74206f7760008201527f6e6572206e6f7220617070726f76656420666f7220616c6c0000000000000000602082015250565b7f4552433732313a2062616c616e636520717565727920666f7220746865207a6560008201527f726f206164647265737300000000000000000000000000000000000000000000602082015250565b7f4552433732313a206f776e657220717565727920666f72206e6f6e657869737460008201527f656e7420746f6b656e0000000000000000000000000000000000000000000000602082015250565b7f53796e66746f6e793a2062617220696e646578206e6f7420636f727265637400600082015250565b7f4552433732313a206d696e7420746f20746865207a65726f2061646472657373600082015250565b7f4552433732313a20617070726f76656420717565727920666f72206e6f6e657860008201527f697374656e7420746f6b656e0000000000000000000000000000000000000000602082015250565b7f4f776e61626c653a2063616c6c6572206973206e6f7420746865206f776e6572600082015250565b7f4552433732313a207472616e73666572206f6620746f6b656e2074686174206960008201527f73206e6f74206f776e0000000000000000000000000000000000000000000000602082015250565b7f4552433732314d657461646174613a2055524920717565727920666f72206e6f60008201527f6e6578697374656e7420746f6b656e0000000000000000000000000000000000602082015250565b7f4552433732313a20617070726f76616c20746f2063757272656e74206f776e6560008201527f7200000000000000000000000000000000000000000000000000000000000000602082015250565b7f4552433732313a207472616e736665722063616c6c6572206973206e6f74206f60008201527f776e6572206e6f7220617070726f766564000000000000000000000000000000602082015250565b7f455243373231456e756d657261626c653a20676c6f62616c20696e646578206f60008201527f7574206f6620626f756e64730000000000000000000000000000000000000000602082015250565b7f53796e66746f6e793a2077726f6e67207061796d656e7420616d6f756e740000600082015250565b613fc0816137ae565b8114613fcb57600080fd5b50565b613fd7816137c0565b8114613fe257600080fd5b50565b613fee816137d2565b8114613ff957600080fd5b50565b614005816137de565b811461401057600080fd5b50565b61401c8161382a565b811461402757600080fd5b5056fea2646970667358221220096588c9b0ecacdf1d592853f88586901bce300e4c329f7bc3855985b232ef5d64736f6c63430008030033608060405234801561001057600080fd5b5060006100216100c460201b60201c565b9050806000806101000a81548173ffffffffffffffffffffffffffffffffffffffff021916908373ffffffffffffffffffffffffffffffffffffffff1602179055508073ffffffffffffffffffffffffffffffffffffffff16600073ffffffffffffffffffffffffffffffffffffffff167f8be0079c531659141344cd1fd0a4f28419497f9722a3daafe3b4186f6b6457e060405160405180910390a3506100cc565b600033905090565b610cd3806100db6000396000f3fe6080604052600436106100555760003560e01c806351cff8d91461005a578063715018a6146100835780638da5cb5b1461009a578063e3a9db1a146100c5578063f2fde38b14610102578063f340fa011461012b575b600080fd5b34801561006657600080fd5b50610081600480360381019061007c91906108cc565b610147565b005b34801561008f57600080fd5b506100986102c7565b005b3480156100a657600080fd5b506100af610401565b6040516100bc91906109d7565b60405180910390f35b3480156100d157600080fd5b506100ec60048036038101906100e791906108a3565b61042a565b6040516100f99190610a72565b60405180910390f35b34801561010e57600080fd5b50610129600480360381019061012491906108a3565b610473565b005b610145600480360381019061014091906108a3565b61061c565b005b61014f61077d565b73ffffffffffffffffffffffffffffffffffffffff1661016d610401565b73ffffffffffffffffffffffffffffffffffffffff16146101c3576040517f08c379a00000000000000000000000000000000000000000000000000000000081526004016101ba90610a52565b60405180910390fd5b6000600160008373ffffffffffffffffffffffffffffffffffffffff1673ffffffffffffffffffffffffffffffffffffffff1681526020019081526020016000205490506000600160008473ffffffffffffffffffffffffffffffffffffffff1673ffffffffffffffffffffffffffffffffffffffff16815260200190815260200160002081905550610275818373ffffffffffffffffffffffffffffffffffffffff1661078590919063ffffffff16565b8173ffffffffffffffffffffffffffffffffffffffff167f7084f5476618d8e60b11ef0d7d3f06914655adb8793e28ff7f018d4c76d505d5826040516102bb9190610a72565b60405180910390a25050565b6102cf61077d565b73ffffffffffffffffffffffffffffffffffffffff166102ed610401565b73ffffffffffffffffffffffffffffffffffffffff1614610343576040517f08c379a000000000000000000000000000000000000000000000000000000000815260040161033a90610a52565b60405180910390fd5b600073ffffffffffffffffffffffffffffffffffffffff1660008054906101000a900473ffffffffffffffffffffffffffffffffffffffff1673ffffffffffffffffffffffffffffffffffffffff167f8be0079c531659141344cd1fd0a4f28419497f9722a3daafe3b4186f6b6457e060405160405180910390a360008060006101000a81548173ffffffffffffffffffffffffffffffffffffffff021916908373ffffffffffffffffffffffffffffffffffffffff160217905550565b60008060009054906101000a900473ffffffffffffffffffffffffffffffffffffffff16905090565b6000600160008373ffffffffffffffffffffffffffffffffffffffff1673ffffffffffffffffffffffffffffffffffffffff168152602001908152602001600020549050919050565b61047b61077d565b73ffffffffffffffffffffffffffffffffffffffff16610499610401565b73ffffffffffffffffffffffffffffffffffffffff16146104ef576040517f08c379a00000000000000000000000000000000000000000000000000000000081526004016104e690610a52565b60405180910390fd5b600073ffffffffffffffffffffffffffffffffffffffff168173ffffffffffffffffffffffffffffffffffffffff16141561055f576040517f08c379a0000000000000000000000000000000000000000000000000000000008152600401610556906109f2565b60405180910390fd5b8073ffffffffffffffffffffffffffffffffffffffff1660008054906101000a900473ffffffffffffffffffffffffffffffffffffffff1673ffffffffffffffffffffffffffffffffffffffff167f8be0079c531659141344cd1fd0a4f28419497f9722a3daafe3b4186f6b6457e060405160405180910390a3806000806101000a81548173ffffffffffffffffffffffffffffffffffffffff021916908373ffffffffffffffffffffffffffffffffffffffff16021790555050565b61062461077d565b73ffffffffffffffffffffffffffffffffffffffff16610642610401565b73ffffffffffffffffffffffffffffffffffffffff1614610698576040517f08c379a000000000000000000000000000000000000000000000000000000000815260040161068f90610a52565b60405180910390fd5b600034905080600160008473ffffffffffffffffffffffffffffffffffffffff1673ffffffffffffffffffffffffffffffffffffffff168152602001908152602001600020546106e89190610aa9565b600160008473ffffffffffffffffffffffffffffffffffffffff1673ffffffffffffffffffffffffffffffffffffffff168152602001908152602001600020819055508173ffffffffffffffffffffffffffffffffffffffff167f2da466a7b24304f47e87fa2e1e5a81b9831ce54fec19055ce277ca2f39ba42c4826040516107719190610a72565b60405180910390a25050565b600033905090565b804710156107c8576040517f08c379a00000000000000000000000000000000000000000000000000000000081526004016107bf90610a32565b60405180910390fd5b60008273ffffffffffffffffffffffffffffffffffffffff16826040516107ee906109c2565b60006040518083038185875af1925050503d806000811461082b576040519150601f19603f3d011682016040523d82523d6000602084013e610830565b606091505b5050905080610874576040517f08c379a000000000000000000000000000000000000000000000000000000000815260040161086b90610a12565b60405180910390fd5b505050565b60008135905061088881610c6f565b92915050565b60008135905061089d81610c86565b92915050565b6000602082840312156108b557600080fd5b60006108c384828501610879565b91505092915050565b6000602082840312156108de57600080fd5b60006108ec8482850161088e565b91505092915050565b6108fe81610aff565b82525050565b6000610911602683610a98565b915061091c82610b7c565b604082019050919050565b6000610934603a83610a98565b915061093f82610bcb565b604082019050919050565b6000610957601d83610a98565b915061096282610c1a565b602082019050919050565b600061097a602083610a98565b915061098582610c43565b602082019050919050565b600061099d600083610a8d565b91506109a882610c6c565b600082019050919050565b6109bc81610b43565b82525050565b60006109cd82610990565b9150819050919050565b60006020820190506109ec60008301846108f5565b92915050565b60006020820190508181036000830152610a0b81610904565b9050919050565b60006020820190508181036000830152610a2b81610927565b9050919050565b60006020820190508181036000830152610a4b8161094a565b9050919050565b60006020820190508181036000830152610a6b8161096d565b9050919050565b6000602082019050610a8760008301846109b3565b92915050565b600081905092915050565b600082825260208201905092915050565b6000610ab482610b43565b9150610abf83610b43565b9250827fffffffffffffffffffffffffffffffffffffffffffffffffffffffffffffffff03821115610af457610af3610b4d565b5b828201905092915050565b6000610b0a82610b23565b9050919050565b6000610b1c82610b23565b9050919050565b600073ffffffffffffffffffffffffffffffffffffffff82169050919050565b6000819050919050565b7f4e487b7100000000000000000000000000000000000000000000000000000000600052601160045260246000fd5b7f4f776e61626c653a206e6577206f776e657220697320746865207a65726f206160008201527f6464726573730000000000000000000000000000000000000000000000000000602082015250565b7f416464726573733a20756e61626c6520746f2073656e642076616c75652c207260008201527f6563697069656e74206d61792068617665207265766572746564000000000000602082015250565b7f416464726573733a20696e73756666696369656e742062616c616e6365000000600082015250565b7f4f776e61626c653a2063616c6c6572206973206e6f7420746865206f776e6572600082015250565b50565b610c7881610aff565b8114610c8357600080fd5b50565b610c8f81610b11565b8114610c9a57600080fd5b5056fea26469706673582212205f62dd721e382a03d607a5082fc4b62b4ddd8a2f69aed70a13ef29780f1dd95c64736f6c63430008030033",
  "linkReferences": {},
  "deployedLinkReferences": {}
}